:020000040000fa
:080000000002040000000000f2
:020000040000fa
:04000800c20300002f
:020000040000fa
:04000c00c20300002b
:020000040000fa
:04001000c203000027
:020000040000fa
:04001400c203000023
:020000040000fa
:04001800c20300001f
:020000040000fa
:04001c00c20300001b
:020000040000fa
:04002000c203000017
:020000040000fa
:04002400c203000013
:020000040000fa
:04002800c20300000f
:020000040000fa
:04002c00c20300000b
:020000040000fa
:04003000c203000007
:020000040000fa
:04003400c203000003
:020000040000fa
:04003800c2030000ff
:020000040000fa
:04003c00c2030000fb
:020000040000fa
:04004000c2030000f7
:020000040000fa
:04004400c2030000f3
:020000040000fa
:04004800c2030000ef
:020000040000fa
:04004c00c2030000eb
:020000040000fa
:04005000c2030000e7
:020000040000fa
:04005400c2030000e3
:020000040000fa
:04005800c2030000df
:020000040000fa
:04005c00c2030000db
:020000040000fa
:04006000c2030000d7
:020000040000fa
:04006400b4030000e1
:020000040000fa
:04006800c2030000cf
:020000040000fa
:04006c00c2030000cb
:020000040000fa
:04007000c2030000c7
:020000040000fa
:04007400c2030000c3
:020000040000fa
:04007800c2030000bf
:020000040000fa
:04007c00c2030000bb
:020000040000fa
:04008000c2030000b7
:020000040000fa
:04008400c2030000b3
:020000040000fa
:04008800c2030000af
:020000040000fa
:04008c00c2030000ab
:020000040000fa
:04009000c2030000a7
:020000040000fa
:04009400c2030000a3
:020000040000fa
:04009800c20300009f
:020000040000fa
:04009c00c20300009b
:020000040000fa
:0400a000c203000097
:020000040000fa
:0400a400c203000093
:020000040000fa
:0400a800c20300008f
:020000040000fa
:0400ac00c20300008b
:020000040000fa
:0400b000c203000087
:020000040000fa
:0400b400c203000083
:020000040000fa
:0400b800c20300007f
:020000040000fa
:0400bc00c20300007b
:020000040000fa
:0400c000c203000077
:020000040000fa
:0400c400c203000073
:020000040000fa
:0400c800c20300006f
:020000040000fa
:0400cc00c20300006b
:020000040000fa
:0400d000c203000067
:020000040000fa
:0400d400c203000063
:020000040000fa
:0400d800c20300005f
:020000040000fa
:0400dc00c20300005b
:020000040000fa
:0400e000c203000057
:020000040000fa
:0400e400c203000053
:020000040000fa
:0400e800c20300004f
:020000040000fa
:0400ec00c20300004b
:020000040000fa
:0400f000c203000047
:020000040000fa
:0400f400c203000043
:020000040000fa
:0400f800c20300003f
:020000040000fa
:0400fc00c20300003b
:020000040000fa
:04010000c203000036
:020000040000fa
:04010400c203000032
:020000040000fa
:04010800c20300002e
:020000040000fa
:04010c00c20300002a
:020000040000fa
:04011000c203000026
:020000040000fa
:04011400c203000022
:020000040000fa
:04011800c20300001e
:020000040000fa
:04011c00c20300001a
:020000040000fa
:04012000c203000016
:020000040000fa
:04012400c203000012
:020000040000fa
:04012800c20300000e
:020000040000fa
:04012c00c20300000a
:020000040000fa
:04013000c203000006
:020000040000fa
:04013400c203000002
:020000040000fa
:04013800c2030000fe
:020000040000fa
:04013c00c2030000fa
:020000040000fa
:04014000c2030000f6
:020000040000fa
:04014400c2030000f2
:020000040000fa
:04014800c2030000ee
:020000040000fa
:04014c00c2030000ea
:020000040000fa
:04015000c2030000e6
:020000040000fa
:04015400c2030000e2
:020000040000fa
:04015800c2030000de
:020000040000fa
:04015c00c2030000da
:020000040000fa
:04016000c2030000d6
:020000040000fa
:04016400c2030000d2
:020000040000fa
:04016800c2030000ce
:020000040000fa
:04016c00c2030000ca
:020000040000fa
:04017000c2030000c6
:020000040000fa
:04017400c2030000c2
:020000040000fa
:04017800c2030000be
:020000040000fa
:04017c00c2030000ba
:020000040000fa
:04018000c2030000b6
:020000040000fa
:04018400c2030000b2
:020000040000fa
:04018800c2030000ae
:020000040000fa
:04018c00c2030000aa
:020000040000fa
:04019000c2030000a6
:020000040000fa
:04019400fa0200006b
:020000040000fa
:04019800c20300009e
:020000040000fa
:04019c00c20300009a
:020000040000fa
:0401a000c203000096
:020000040000fa
:0401a400c203000092
:020000040000fa
:0401a800c20300008e
:020000040000fa
:0401ac00c20300008a
:020000040000fa
:0401b000c203000086
:020000040000fa
:0401b400c203000082
:020000040000fa
:0401b800c20300007e
:020000040000fa
:0401bc00c20300007a
:020000040000fa
:0401c000c203000076
:020000040000fa
:0401c400c203000072
:020000040000fa
:0401c800c20300006e
:020000040000fa
:0401cc00c20300006a
:020000040000fa
:0401d000c203000066
:020000040000fa
:0401d400c203000062
:020000040000fa
:0401d800c20300005e
:020000040000fa
:0401dc00c20300005a
:020000040000fa
:0401e000c203000056
:020000040000fa
:0401e400c203000052
:020000040000fa
:0401e800c20300004e
:020000040000fa
:0401ec00c20300004a
:020000040000fa
:0401f000c203000046
:020000040000fa
:0401f400c203000042
:020000040000fa
:0401f800c20300003e
:020000040000fa
:0401fc00c20300003a
:020000040000fa
:04020000c203000035
:020000040000fa
:04020400c203000031
:020000040000fa
:040208003a030000b5
:020000040000fa
:04020c00c203000029
:020000040000fa
:04021000c203000025
:020000040000fa
:04021400c203000021
:020000040000fa
:04021800c20300001d
:020000040000fa
:04021c00c203000019
:020000040000fa
:04022000c203000015
:020000040000fa
:04022400c203000011
:020000040000fa
:04022800c20300000d
:020000040000fa
:04022c00c203000009
:020000040000fa
:04023000c203000005
:020000040000fa
:04023400c203000001
:020000040000fa
:04023800c2030000fd
:020000040000fa
:04023c00c2030000f9
:020000040000fa
:04024000c2030000f5
:020000040000fa
:04024400c2030000f1
:020000040000fa
:04024800c2030000ed
:020000040000fa
:04024c00c2030000e9
:020000040000fa
:04025000c2030000e5
:020000040000fa
:04025400c2030000e1
:020000040000fa
:04025800c2030000dd
:020000040000fa
:04025c00c2030000d9
:020000040000fa
:04026000c2030000d5
:020000040000fa
:04026400c2030000d1
:020000040000fa
:04026800c2030000cd
:020000040000fa
:04026c00c2030000c9
:020000040000fa
:04027000c2030000c5
:020000040000fa
:04027400c2030000c1
:020000040000fa
:04027800c2030000bd
:020000040000fa
:04027c00c2030000b9
:020000040000fa
:04028000c2030000b5
:020000040000fa
:04028400c2030000b1
:020000040000fa
:04028800c2030000ad
:020000040000fa
:04028c00c2030000a9
:020000040000fa
:04029000c2030000a5
:020000040000fa
:04029400c2030000a1
:020000040000fa
:04029800c20300009d
:020000040000fa
:04029c00c203000099
:020000040000fa
:0402a000c203000095
:020000040000fa
:0402a400c203000091
:020000040000fa
:0402a800c20300008d
:020000040000fa
:0402ac00c203000089
:020000040000fa
:0402b000c203000085
:020000040000fa
:0402b400c203000081
:020000040000fa
:0402b800c20300007d
:020000040000fa
:0402bc00c203000079
:020000040000fa
:0402c000c203000075
:020000040000fa
:0402c400c203000071
:020000040000fa
:0402c800c20300006d
:020000040000fa
:0402cc00c203000069
:020000040000fa
:0402d000c203000065
:020000040000fa
:0402d400c203000061
:020000040000fa
:0402d800c20300005d
:020000040000fa
:0402dc00c203000059
:020000040000fa
:0402e000c203000055
:020000040000fa
:0402e400c203000051
:020000040000fa
:0402e800c20300004d
:020000040000fa
:0402ec00c203000049
:020000040000fa
:0402f000c203000045
:020000040000fa
:0402f400c203000041
:020000040000fa
:0402f800c20300003d
:020000040000fa
:0402fc00c203000039
:020000040000fa
:04030000c203000034
:020000040000fa
:04030400c203000030
:020000040000fa
:04030800c20300002c
:020000040000fa
:04030c00c203000028
:020000040000fa
:04031000c203000024
:020000040000fa
:04031400c203000020
:020000040000fa
:04031800c20300001c
:020000040000fa
:04031c00c203000018
:020000040000fa
:04032000c203000014
:020000040000fa
:04032400c203000010
:020000040000fa
:04032800c20300000c
:020000040000fa
:04032c00c203000008
:020000040000fa
:04033000c203000004
:020000040000fa
:04033400c203000000
:020000040000fa
:100400008f0221000eff26000e0188000000000070
:10041000000020000000e000020032000001200087
:100420002002880014000700d80007000000e00048
:1004300003003a0080752000010020000200370010
:100440000000200001002000810f70000100320038
:100450000f000700000020000000e0000200320052
:10046000000002000000000006040200000000007e
:100470000040da000000fe00200020000000e00044
:1004800002003200100020009001880000000600e9
:10049000a1028800800478000000eb001f003700f4
:1004a000e284440054a0b4009905ba00e2844400f8
:1004b00054a0b4009906ba00e284440054a0b400e9
:1004c0000006eb00476fde00fd07b200ae018800ba
:1004d000636ce10003003a000ad801000000eb0061
:1004e0000e003700606ce10008003a00004deb00a0
:1004f0000a05e800020039003420ec000af0a000f0
:100500008b05e900f9ff3e00040037006168e10057
:10051000010032000086eb000b00070019c7ba008b
:100520001905ba000e04e00003003a000a00e000da
:10053000dbff3a0000000600fe07b200ae028800b2
:100540008a047800f5ff37000cd0a300e20f4d00bd
:100550001c00390089027800354dba000a05e80010
:10056000020039003420ec000af0a0008b05e900fd
:100570000f003200254dba000a05e80002003900dc
:100580003420ec000af0a0008b05e90008003200de
:100590000c00e0000600320015cdba000a05e800a4
:1005a000020039003420ec000af0a0008b05e900bd
:1005b0008984e80054a0b4000b00e000e2ff3a0098
:1005c000000006009902ba00055d78008b05e9007d
:1005d000f7ff3200c82ade00055d78008b05e900d0
:1005e000f3ff32000c00e000f1ff320019ddba0029
:1005f000eeff3700809fbe000000fa0060608000c0
:10060000308188003181800000ff2300808f5000fe
:1006100003003c0030818000ee0f500002003c00df
:10062000776ea90001003700776ea80018d0bf00d0
:100630000004e00009003a00308180000000400022
:10064000d01d880031818000f0ff2000008068000c
:1006500000004000801f880002003700ba23ef002e
:10066000f023ef000b68a9000080fa004f00be00e5
:1006700000400600809fbe000000fa00405b800042
:1006800030818800a0012100a0009000a00121007d
:1006900031009800a001210090009000a0012100ed
:1006a00021009800a001210090007800a001210005
:1006b0001100980031818000a0012100010878001c
:1006c000a0012100b0009000a001210020009000b6
:1006d00080804000a0012100100090008080400038
:1006e000a001210010007800008040000000e00020
:1006f00001003d00630040004280de003081880040
:100700003181800000ff2300808f500003003c00f7
:1007100030818000ee0f500002003c00776ea9008f
:1007200001003700776ea80018d0bf000004e00079
:1007300007003a0030818000d01d880031818000a0
:10074000f0ff210000806800801f88000200370051
:10075000ba23ef00f023ef000f08a9000080fa0091
:100760004f00be00004006000000fa00cde3a900e3
:1007700097e3a90022eea80001e8a9000080fa0092
:10078000004006000040da000000fe000000050006
:10079000839f68000100e00002003d00600010003f
:1007a000e08018000300e00002003d00600111003d
:1007b000e0811900050007004f00e00002003b0047
:1007c00060001000e0801800000006006022b80001
:1007d000060220000000d0008180d2000482d200f6
:1007e0008582d2000000a0000202520083825a00db
:1007f000030031000202420083824a000000a1008f
:0c0800000603e900f3ff3a0000000600c8
:020000040000fa
:10080c000000fa00c3e8a9001ecea9001eeea90044
:10081c00734ea900736ea9006a01070091010700cd
:10082c0060010700020107002c010700800007008f
:10083c00c3000700c3e8a800776ea80001003700ca
:10084c000000000090598000640060000000e0008f
:10085c003f00320080598000620060000000e00020
:10086c003b00320070608000008088008061800056
:10087c002080880001808000208080000080500053
:10088c006101b9003080800041808000020040008e
:10089c00838048003080880041808800528080002e
:1008ac006380800000092b0001002000800f5100a4
:1008bc00818f5900200034003080800041808000fe
:1008cc0002092b0003002000aeff070030808800d7
:1008dc0041808800108180006101b9003080800067
:1008ec0041808000800f5100818f59000800350035
:1008fc00108180000000ea006101b90030808000a6
:10090c0041808000800f5100818f59000500340018
:10091c0010c0b30018f0b700ba23ef00f023ef00bb
:10092c0022cea8000a30ef000c30ef000630ef00aa
:10093c000830ef0006003700508080006180800096
:10094c0061004000e0804800508088006180880091
:10095c0090598000610060000000e000b8ff320098
:10096c006061800010808800108080006101b900f7
:10097c0070808000818080000200400083804800ed
:10098c00708088008180880092808000a380800025
:10099c0000092b0001002000800f5100818f5900ad
:1009ac001c003400708080008180800002092b00c4
:1009bc000300200073ff070070808800818088008e
:1009cc00708080008180800000007800b0808800fa
:1009dc00208180006101b9007080800081808000de
:1009ec00800f5100818f590005003d0010c0b300ed
:1009fc0018f0b700ba23ef00f023ef00774ea800f1
:100a0c000e30ef001030ef001230ef001430ef001a
:100a1c008cff370090808000a18080006100400036
:100a2c00e080480090808800a180880085ff370016
:100a3c000000fa001100200010210a000003000041
:100a4c008000eb0054210a0000030000110020007c
:100a5c0043210a009603000096e3a8004100200001
:100a6c0020210a00960300009823ef00c00020000c
:100a7c00f01c88001100200043210a00a003000094
:100a8c008000eb00fb210a00a0030000a103a800da
:100a9c0080192200f01d8800ba23ef00000120000d
:100aac00c01d880020032000401e88002003200069
:100abc00301e880000012000001e8800110020005c
:100acc0043210a00cc030000cce3a8004100200025
:100adc0020210a00cc03000030002000701e88008a
:100aec00c0002000a01e88001100200043210a0035
:100afc00d60300008000eb00fb210a00d6030000a7
:100b0c00d703a80080192200a01f8800f023ef0053
:100b1c0000012000701f880020032000f01f8800b7
:100b2c0020032000e01f880000802000001e8800a9
:100b3c00cde3a80097e3a8000080fa0000000600af
:100b4c000000fa00000ea800020ea80031002000e0
:100b5c00fe210a000a0b000011002000d8210a0017
:100b6c000a0b00008000eb0060210a00d60b00008d
:100b7c0041002000ca210a006a0b00000c0ba800df
:100b8c008000eb0090210a00d40b00008000eb00e9
:100b9c0040210a006a0b00008000eb00ed210a00e6
:100bac006a0b00006b2ba8000f08a9002f08a800e7
:100bbc006beba8008000eb00fd210a00080b000085
:100bcc003100200098210a00d60b000002eba9008e
:100bdc00100ba900102ba900f1002000b8210a006d
:100bec00020c000001eba800000ca80000000000a3
:100bfc000160800000102000008060000000e00018
:100c0c00fbff32000a0ba8004158800000e02f00c7
:100c1c0000806000405888008100200040210a00bc
:100c2c00800b0000d00ba9000080fa000000060029
:100c3c000000fa00002ea8001e4ea8003100200073
:100c4c00fe210a000a0b000011002000d8210a0026
:100c5c000a0b00008000eb0060210a00da0b000098
:100c6c000c2ba8004106200090210a00d80b000094
:100c7c008000eb00fd210a00080b00003100200071
:100c8c0098210a00da0b000002eba900104ba90016
:100c9c00106ba900f1002000b8210a00020c000022
:100cac0001eba800002ca8000000000001608000ef
:100cbc0000202000008060000000e000fbff3200fc
:100ccc000a2ba80081002000c8210a00800b00001c
:100cdc00d02ba9000080fa00000006000000fa00ea
:100cec0038eea800554ea8003aeea800574ea800c2
:100cfc0031002000fe210a000a0b00001100200028
:100d0c00d8210a000a0b00008000eb0060210a00c9
:100d1c00040b00004106200090210a00060b000085
:100d2c008000eb00fd210a00080b000031002000c0
:100d3c0065210a00020b000002eba900140ba900ac
:100d4c00142ba900148ba90014aba900f1002000ee
:100d5c00b8210a00020c000001eba80000eca8006e
:100d6c00000000000160800000002800008060008e
:100d7c000000e000fbff32000aeba800a1002000fd
:100d8c0040210a00900b0000d20ba900810020002a
:100d9c0040210a00920b0000d24ba9000080fa00ff
:100dac00000006000000fa00c228a800d0c2b30060
:100dbc0005edb70001e8a90021e8a8000080fa00c1
:100dcc00000006000000fa001100200050210a006b
:100ddc00860f000061042000b0210a00880f00007b
:100dec002100200064210a008a0f0000110020005d
:100dfc0020210a008a0f000032002000800720000a
:100e0c00a109200053f8200080497800814978001e
:100e1c008249780012002000600420007105200037
:100e2c0043f8200080497800814978008249780095
:100e3c0000000000207c8000610060000000e000e9
:100e4c00fcff3a0000000000217c80000002200022
:100e5c00008060000000e000fbff32000080fa0020
:100e6c00000006000000fa001100200050210a00ca
:100e7c008e0f0000d1072000b0210a00900f000057
:100e8c001100200064210a00920f000011002000c4
:100e9c0020210a00920f00008fefa8000080fa00ba
:040eac00000006003c
:020000040000fa
:100eb0000010000018000000800000002210000058
:100ec00004000000820000002c01b00004000000bb
:100ed0002610000002000000820000000008000050
:100ee000181000000a000000800000000000000050
:020000040000fa
:020000040005f5
:047e0000ffff000080
:020000040000fa
:020000040005f5
:047e2000ffffff0061
:020000040000fa
:020000040005f5
:047e300078ffff00d8
:020000040000fa
:020000040005f5
:047e380079ffff00cf
:020000040000fa
:020000040005f5
:047e4000ffffff0041
:020000040000fa
:020000040005f5
:047e4800ffffff0039
:020000040000fa
:020000040005f5
:047e5000dfffff0051
:020000040000fa
:020000040005f5
:047e5800ffffff0029
:020000040000fa
:020000040005f5
:047e6000ffffff0021
:020000040000fa
:020000040005f5
:047e6800ffffff0019
:020000040000fa
:020000040005f5
:047e7000ffffff0011
:020000040000fa
:020000040005f5
:047e7800ffffff0009
:020000040000fa
:020000040005f5
:047e8000fffcff0004
:020000040000fa
:020000040005f5
:047e8800ffffff00f9
:020000040000fa
:020000040005f5
:047ff800ffffff0088
:00000001FF
